:020000040800F2
:100000001079002079020008F1460008F136000856
:10001000ED46000879170008A56F000800000000F1
:10002000000000000000000000000000C101000806
:10003000DD31000800000000150200085D4C0008DA
:10004000930200089302000893020008930200083C
:10005000930200089302000893020008930200082C
:10006000930200089302000893020008930200081C
:10007000930200089302000893020008930200080C
:10008000930200089302000893020008051B000871
:100090007D170008930200089302000893020008ED
:1000A00093020008930200089302000893020008DC
:1000B0001D4E0008930200089302000893020008F6
:1000C00093020008930200089302000893020008BC
:1000D0009302000895660008930200080167000873
:1000E000930200089302000893020008930200089C
:1000F00093020008930200080951000893020008C7
:10010000930200089302000893020008930200087B
:10011000930200089302000893020008AD50000803
:100120009302000893020008C12E00089302000801
:10013000930200089302000893020008930200084B
:10014000211B000893020008930200089302000894
:10015000930200089302000893020008B1690008A6
:10016000930200089302000893020008930200081B
:10017000930200089302000893020008930200080B
:1001800093020008930200089302000893020008FB
:1001900093020008930200089302000893020008EB
:1001A000000000000000000093020008DFF80CD0FF
:1001B00000F00EFC00480047A994000810790020C8
:1001C0002A4B19680868B0E8F04F80F30988BFF33C
:1001D0006F8F4FF0000080F311887047000000001F
:1001E00006480068006880F3088862B661B6BFF30D
:1001F0004F8FBFF36F8F00DF00BF00BF08ED00E03F
:10020000DFF80C00016841F470010160704700BF25
:1002100088ED00E0EFF30980BFF36F8F134B1A688E
:100220001EF0100F08BF20ED108A20E9F04F10607B
:1002300008B44FF0500080F31188BFF34F8FBFF325
:100240006F8F0AF083FF4FF0000080F3118808BC25
:1002500019680868B0E8F04F1EF0100F08BFB0EC46
:10026000108A80F30988BFF36F8F70474C04002019
:10027000EFF30580704700000648804706480047B6
:10028000FEE7FEE7FEE7FEE7FEE7FEE7FEE7FEE746
:10029000FEE7FEE7914C0008AD01000840EA0103CB
:1002A0009B0703D009E008C9121F08C0042AFAD22C
:1002B00003E011F8013B00F8013B521EF9D27047F0
:1002C000D2B201E000F8012B491EFBD27047002298
:1002D000F6E710B513460A4604461946FFF7F0FF45
:1002E000204610BD2DE9FE4F804681EA0300C00F75
:1002F0000C46009021F0004123F00045B8EB0200CD
:10030000A94105D24046214690461C460B4602466E
:1003100023F00040104347D0270DC7F30A00C3F372
:100320000A510290401A019040286BDAC3F313007F
:1003300040F4801B0098924620B10023D2EB030AC0
:1003400063EB0B0B01985946C0F14002504600F098
:1003500010FA06460D4650465946019A00F028FA12
:1003600010EB08006141002487EA115284EAE77328
:100370001A4340D0009A62B3019A012A4FEA075209
:1003800015DC001B61EB02014FF0004202EA07524C
:10039000CDE90042001C41F5801132462B4600F0A9
:1003A0005FFA03B0BDE8F08F40462146F9E7001B35
:1003B00061EB0201001C41F5801300185B4120181D
:1003C000A2F5001747EB030140EAD570B6196D415D
:1003D00011E06D084FEA360645EAC0754FEA07524C
:1003E000001B61EB0201001C41F5801149084FEA36
:1003F00030000019514132462B4603B0BDE8F04FA2
:1004000000F01FBA0098012240000023D0EB020246
:1004100063EBE073009821464FEAE074B8EB00000C
:1004200061EB0401E9E783F000435BE781F0004101
:1004300058E72DE9FE4F81EA030404F0004421F05F
:10044000004100944FF0000B23F0004350EA0104F8
:100450005ED052EA03045BD0C3F30A54C1F30A55D9
:100460002C44A4F2F3340194A0FB0254C1F3130111
:1004700041F48011C3F3130343F4801301FB0244DE
:1004800000FB034E840A970A44EA815447EA8357E3
:10049000A4FB076802958D0A05FB07854FEA932C9C
:1004A00004FB0C542705029D4FEA065847EA16370D
:1004B000B5EB08056EEB070C870E920E47EA811725
:1004C00042EA8312A7FB0201B6EB0B0164EB0004C6
:1004D0002B0D43EA0C335E1844EB1C50DA465146B0
:1004E000E7FB0201C5F313044FEA0B3343EA14534D
:1004F0004FEA0432019C43EA0603A4F10C0402947F
:10050000009CCDE900B400F0ABF903B0BDE8F08F7A
:1005100000200146F9E72DE9F04D81EA030404F0DB
:10052000004B21F0004514464FF0000A23F0004133
:1005300050EA050220D054EA01021DD0C5F30A5743
:100540000246C5F31303C1F31300C1F30A5640F486
:10055000801543F48013A7EB0608101BD64608F25B
:10056000FD3873EB050002D308F1010801E0921891
:100570005B41B8F1000F03DA00200146BDE8F08DC1
:1005800000204FF48011064684460EE0171B73EBE3
:10059000050705D3121B63EB050306434CEA010C68
:1005A00049084FEA300092185B4150EA0107EDD14B
:1005B00052EA030012D082EA040083EA05010843EC
:1005C00005D0101BAB4106D20122002306E0002219
:1005D0004FF0004302E06FF0010253101AEB0600E7
:1005E0004CEB085110EB0A0041EB0B01BDE8F04D5C
:1005F00000F027B90EB5C10F80EAE0700844CA07C1
:10060000002140F233438DE80E000A460B4600F00D
:1006100027F903B000BD70B5C1F30A5201F00045DF
:100620000024C1F3130140F2FF3341F480119A42D8
:1006300001DA002070BD40F233439A42A2F2334205
:1006400003DC524200F0A4F800E090402C43F1D0CB
:10065000404270BD00F0004230F000400AD0C10DB1
:1006600001F56071C0F3160042EA0151C20840076B
:1006700011437047002001467047000030B5041E4A
:1006800071F1000404DB4FF00044404264EB0101CF
:10069000141E73F1000405DB1C464FF00043524268
:1006A00063EB0403994208BF904230BD01F0004360
:1006B00030B421F0004150EA010206D00A0DA2F543
:1006C0006072C1F31301002A02DC30BC00207047C5
:1006D000440F44EAC104C100E01830BC00EBC25032
:1006E00000F078B830B50B460146002020220124E6
:1006F00009E021FA02F59D4205D303FA02F5491BF0
:1007000004FA02F52844151EA2F10102F1DC30BD05
:100710002DE9F05F0546002092469B468846064636
:10072000814640241BE0284641464746224600F0C9
:100730002FF853465A46C01A914110D31146184615
:10074000224600F016F82D1A67EB01084F462246A4
:100750000120002100F00DF817EB00094E41201E8A
:10076000A4F10104DFDC484631462A464346BDE891
:10077000F09F202A04DB203A00FA02F100207047A3
:100780009140C2F1200320FA03F3194390407047CF
:10079000202A04DB203A21FA02F00021704721FAD6
:1007A00002F3D040C2F1200291400843194670473D
:1007B000202A06DBCB17203A41FA02F043EAE07325
:1007C00006E041FA02F3D040C2F120029140084312
:1007D000194670470029A8BF7047401C490008BF50
:1007E00020F00100704710B4B0FA80FC00FA0CF061
:1007F00050EA010404BF10BC704749B1CCF1200499
:1008000021FA04F411FA0CF118BF01212143084325
:10081000A3EB0C01CB1D4FEA00614FEA102042BF51
:10082000002010BC704700EBC35010440029A4BF47
:1008300010BC7047401C490008BF20F0010010BCEC
:10084000704710B5141E73F1000408DA401C41F122
:10085000000192185B411A4301D120F0010010BD44
:100860002DE9F04D92469B4611B1B1FA81F202E0BA
:10087000B0FA80F220329046FFF77BFF04460F4625
:1008800040EA0A0041EA0B0153465A46084313D096
:10089000114653EA010019D0C8F140025046FFF753
:1008A00077FF05460E46504659464246FFF761FF20
:1008B000084305D0012004E020463946BDE8F08D0C
:1008C0000020054346EAE0762C4337430A98630547
:1008D000E40AA0EB08000022FD0A44EA47540A306B
:1008E00002D500200146E9E7010510196941DDE95B
:1008F000084500196941BDE8F04DA2E72DE9F04D2A
:1009000000231A461B1A8A4103DB00200146BDE87A
:10091000F08DC1F30A52C1F3130141F480154FF079
:10092000000BD10702D100186D41521E002704466A
:1009300040F2FF11384601EB620A3E46804602460D
:1009400000204FF48011FFF723FFC2197141BB183B
:1009500046EB0100B4EB030C75EB000C04D3E41A76
:1009600065EB000517460E46241908F101006D419C
:1009700080463428E3DDF91946EB0600091BA8413F
:1009800003D24FF0FF32134601E0002213461BEB67
:10099000070046EB0A51BDE8F04DFFF752BFC1F327
:1009A0000A52C1F3130140F2FF3341F480119A421D
:1009B00002DA00200146704740F233439A42A2F225
:1009C000334202DC5242FFF7E3BEFFF7D2BE000023
:1009D000064C074D06E0E06840F0010394E807008C
:1009E00098471034AC42F6D3FFF7E4FBB8C40008D4
:1009F000D8C400080EB540F2334102910021CDE980
:100A000000110A460B46FFF72BFF03B000BD70B57F
:100A10008C1810F8015B15F0070301D110F8013BA9
:100A20002A1106D110F8012B03E010F8016B01F830
:100A3000016B5B1EF9D12B0705D40023521E0DD488
:100A400001F8013BFAE710F8013BCB1A921C03E0D6
:100A500013F8015B01F8015B521EF9D5A142D8D30E
:100A6000002070BD002010E0002100EB4002294B67
:100A700023F8121000EB400203EB4202518000EB1E
:100A8000400203EB42029180401C0128ECDBB7EEF0
:100A9000000A214981ED000A9FED200A204981EDDD
:100AA000000A9FED1E0A1F4981ED000A9FED1B0AF7
:100AB0001D4981ED000AB7EE000A1C4981ED000ACC
:100AC0009FED160A1A4981ED000A9FED140A194993
:100AD00081ED000A9FED110A174981ED000A9FED93
:100AE0000F0A164981ED000A9FED0C0A81ED010AFB
:100AF0009FED0A0A81ED020A9FED080A104981ED77
:100B0000000A9FED060A81ED010A9FED040A81EDBE
:100B1000020A70478E030020AC0300200000000092
:100B2000B0030020B4030020B8030020BC03002061
:100B3000C0030020C4030020C8030020AC0E002026
:100B4000B80E00200EB500200090019002902F48B2
:100B500000882F49097801EB41012E4A22F8110043
:100B60002A4840882A49097801EB410102EB4101FA
:100B70004880264880882649097801EB410102EB2C
:100B80004101888022480078401C214908700020DB
:100B90002149087024E02049097801EB41011D4AF0
:100BA00032F911100098084400901B49097801EBB4
:100BB000410102EB4101B1F9021001980844019092
:100BC0001549097801EB410102EB4101B1F904102B
:100BD00002980844029010480078401C0E490870A2
:100BE0000D4800780128D6DB009800B20B49088038
:100BF000019800B24880029800B2888004480078CA
:100C0000012802D10020024908700EBDB200002068
:100C1000CC0300208E030020CD0300208803002099
:100C200000B587B00121480603F0FAFD01218806CE
:100C300003F0F6FD00208DF817008DF8180008204D
:100C40008DF8140003208DF8150000208DF8120097
:100C50008DF819000320ADF8100000208DF81A005F
:100C60008DF813008DF816008DF81B0004A92B4891
:100C700001F0CFF901208DF80D000020ADF808003B
:100C8000ADF80000ADF80200ADF80400ADF80600C4
:100C90008DF80B008DF80A0001208DF80C006846D5
:100CA00001F09AF801208DF8170000208DF8180047
:100CB00008208DF8140003208DF8150000208DF811
:100CC00012008DF819000320ADF8100000208DF8F7
:100CD0001A008DF813008DF816008DF81B0004A97A
:100CE0000F4801F096F901208DF80D000020ADF8B5
:100CF0000800ADF80000ADF80200ADF80400ADF852
:100D000006008DF80B000E208DF80A0001208DF8EA
:100D10000C00684601F060F807B000BD00640040B8
:100D20000068004000B597B00121414803F068FD1C
:100D30000121102003F094FD072211463D4802F0E6
:100D400011FC8020119002208DF8480000208DF8C1
:100D50004A0003208DF8490000208DF84B0011A9AE
:100D6000344802F0B7FB344805F088FE334813904E
:100D70000020ADF85000ADF852004FF48060ADF89F
:100D800054000420ADF856000020ADF8580013A917
:100D9000294805F047FF0121274805F059FE0122A7
:100DA0004021254805F060FE4FF4A06003F0DEFC12
:100DB0003A208DF8400000208DF841008DF8420067
:100DC00001208DF8430010A803F094FC1C4802F0A9
:100DD000D1F84FF0006001901748001D02901948AB
:100DE00003900020049012200590002006904FF4FC
:100DF000806007900020089009904FF480700A905E
:100E00004FF440300B9000200C900D900E900F90FE
:100E100001A90B4802F0B4F901221021084802F0A0
:100E200091F90121064802F099F817B000BD0000C1
:100E3000020040000004024000100140A0860100B2
:100E400040640240E80400201FB50121084603F079
:100E5000D7FC0121022003F0D3FC0121042003F080
:100E6000CFFC0121082003F0CBFC0121102003F06E
:100E7000C7FC0121202003F0C3FC0121402003F026
:100E8000BFFC0121802003F0BBFC0121080203F01C
:100E9000B7FC0120029002208DF80D0001208DF892
:100EA0000C0000208DF80E0001208DF80F0002A923
:100EB0005B4802F00FFB0121594802F07FFB012043
:100EC0008DF80C0000208DF80E008020029002208A
:100ED0008DF80D0002A9534802F0FCFA8021514818
:100EE00002F06EFB01208DF80C0000208DF80E0042
:100EF0004FF48040029002208DF80D0002A94A486C
:100F000002F0E8FA4FF48041474802F057FB022014
:100F10008DF80C0000208DF80E004FF44070029008
:100F200001208DF80F0003208DF80D0002A93F4825
:100F300002F0D0FA072208213C4802F013FB0722F6
:100F400009213A4802F00EFB02208DF80C00002027
:100F50008DF80E000320029001208DF80F00032071
:100F60008DF80D0002A9314802F0B4FA09220021DF
:100F70002E4802F0F7FA092201212C4802F0F2FA79
:100F800002208DF80C0000208DF80E004FF4405028
:100F9000029001208DF80F0003208DF80D0002A9AA
:100FA000234802F097FA09220C21214802F0DAFACC
:100FB00009220D211E4802F0D5FA02208DF80C00FE
:100FC00000208DF80E008020029001208DF80F0087
:100FD00003208DF80D0002A9154802F07BFA0722C4
:100FE0001146134802F0BEFA4FF400500090012061
:100FF0008DF8040000208DF8060003208DF8050010
:1010000069460C4802F066FA4FF40051094802F0B4
:10101000D7FA4FF48041044802F0D0FA1FBD000017
:10102000002002400010024000140240000C024068
:10103000000402400018024008B54FF4407003F06D
:1010400095FB14208DF8000001208DF80300092085
:101050008DF8010000208DF80200684603F04AFB7D
:10106000012202210B4800F0CBFF40208DF8000048
:1010700001208DF803000C208DF8010000208DF870
:101080000200684603F036FB01220221024800F00C
:10109000B7FF08BD006400400068004000B58BB099
:1010A0000121402003F0BCFB0121802003F0A8FBBC
:1010B00009220C21224802F055FA4FF48050099081
:1010C00002208DF8280003208DF8290000208DF8DB
:1010D0002A0001208DF82B0009A9194802F0FAF91D
:1010E0005320ADF818000020ADF81A0041F2873007
:1010F00007900020ADF8200006A9124804F05EFC1D
:101100006020ADF804000120ADF806000020ADF825
:10111000100001A90B4804F0BBFB0821094804F0AA
:1011200007FC0121074804F077FA0121054804F083
:1011300094FA0021034804F011FC0BB000BD00003C
:10114000001C02400018004000B589B0012108468B
:1011500003F066FB0F20079002208DF820008DF829
:10116000210000208DF8220002208DF8230007A91D
:10117000464802F0AFF901220021444802F0F2F99A
:1011800001221146414802F0EDF9012202213F48B7
:1011900002F0E8F9012203213C4802F0E3F9532070
:1011A000ADF810000020ADF81200401E05900020A0
:1011B000ADF8180004A94FF0804004F0FFFB0020B8
:1011C000ADF804000A20ADF806000120ADF80800D3
:1011D0000020ADF80A00ADF80C0001A94FF08040E6
:1011E00004F06DFA0420ADF804000A20ADF8060002
:1011F0000120ADF808000020ADF80A00ADF80C00A1
:1012000001A94FF0804004F05AFA0820ADF804001C
:101210000A20ADF806000120ADF808000020ADF866
:101220000A00ADF80C0001A94FF0804004F047FA25
:101230000C20ADF804000A20ADF806000120ADF83E
:1012400008000020ADF80A00ADF80C0001A94FF02D
:10125000804004F034FA01221E21900704F066FA5F
:101260001C208DF8000002208DF8010000208DF870
:10127000020001208DF80300684603F03BFA0121CB
:10128000880704F0EAF909B000BD00000000024040
:1012900000B58BB00121022003F0C2FA0121022027
:1012A00003F0AEFA1020099002208DF828000320E8
:1012B0008DF8290000208DF82A0002208DF82B00DF
:1012C00009A91C4802F006F902220421194802F07B
:1012D00049F95320ADF818000020ADF81A0040F28B
:1012E000DB5007900020ADF8200006A9124804F05A
:1012F00065FB6020ADF804000120ADF80600002079
:10130000ADF8100001A90C4804F01AFA08210A48A7
:1013100004F054FA0121084804F07EF9012106483E
:1013200004F09BF94FF49661034804F013FB0BB0F3
:1013300000BD0000000402400004004000B58BB076
:101340000121042003F06CFA0121082003F058FA6F
:1013500002220D212B4802F005F902220E21294814
:1013600002F000F94FF4C040099002208DF82800E7
:1013700003208DF8290000208DF82A0001208DF827
:101380002B0009A91F4802F0A5F85320ADF818005A
:101390000020ADF81A0041F2873007900020ADF828
:1013A000200006A9184804F009FB6020ADF80400ED
:1013B0000120ADF806000020ADF8100001A9124888
:1013C00004F006FA01A9104804F062FA08210E4858
:1013D00004F050FA08210C4804F0AAFA01210A4846
:1013E00004F01AF90121084804F037F94FF47A7132
:1013F000054804F0B1FA4FF47A71034804F0AEFAEC
:101400000BB000BD000C0240000800401FB50121D8
:10141000202003F005FAA720ADF804000020ADF865
:101420000600052002900020ADF80C0001A910482C
:1014300004F0C4FA01210E4804F00CF9012211460F
:101440000B4804F073F937208DF8000001208DF867
:10145000010002208DF8020001208DF8030068468B
:1014600003F048F90121024804F0F7F81FBD00001D
:101470000014004000B589B00121022003F0F0F90A
:10148000E420079002208DF820008DF82100002034
:101490008DF8220002208DF8230007A9544802F09D
:1014A00019F803220521524802F05CF803220621B4
:1014B0004F4802F057F8032207214D4802F052F836
:1014C000032202214A4802F04DF8A720ADF810008F
:1014D0000020ADF812004FF6FF7005900020ADF827
:1014E000180004A9434804F069FA3021414804F087
:1014F00028FA0020ADF804000A20ADF8060001200B
:10150000ADF808000020ADF80A00ADF80C0001A904
:10151000384804F0D4F80420ADF804000A20ADF8EF
:1015200006000120ADF808000020ADF80A00ADF873
:101530000C0001A92F4804F0C2F80820ADF80400FF
:101540000A20ADF806000120ADF808000020ADF833
:101550000A00ADF80C0001A9264804F0B0F80C20F0
:10156000ADF804000A20ADF806000120ADF808002F
:101570000020ADF80A00ADF80C0001A91D4804F0E8
:101580009EF81F211B4804F062F801221F21194810
:1015900004F0CCF801220021164804F049F8012299
:1015A0000421144804F044F801220821114804F0F1
:1015B0003FF801220C210F4804F03AF801210D48B0
:1015C00004F02AF801210B4804F047F82E208DF88A
:1015D000000002208DF8010000208DF8020001209B
:1015E0008DF80300684603F085F809B000BD0000DF
:1015F000002002400004014010B588B004460121DB
:10160000082003F0FDF80121880403F009F90722FE
:101610000821274801F0A6FF07220921244801F0EC
:10162000A1FF4FF44070069002208DF81C000020AE
:101630008DF81E0001208DF81F0002208DF81D007E
:1016400006A91B4801F046FF02940020ADF81400E3
:101650000C20ADF812000020ADF81000ADF80E001F
:10166000ADF80C0002A9134805F0DCFA012111487D
:1016700005F0EEF940210F4805F0D2F9012240F2C1
:1016800025510C4805F0A9FA4FF4A06003F06EF85C
:1016900027208DF8040001208DF8070003208DF825
:1016A00005008DF8060001A803F024F808B010BD6D
:1016B000000C02400048004010B588B004460121EB
:1016C000402003F09DF80121202003F0C9F80822F2
:1016D0000E21274801F046FF08220921244801F085
:1016E00041FF4FF48440069002208DF81C0000203A
:1016F0008DF81E0001208DF81F0002208DF81D00BE
:1017000006A91B4801F0E6FE02940020ADF8140083
:101710000C20ADF812000020ADF81000ADF80E005E
:10172000ADF80C0002A9134805F07CFA012111481C
:1017300005F08EF940210F4805F072F9012240F2C0
:1017400025510C4805F049FA4FF4A06003F00EF85B
:1017500047208DF8040001208DF8070003208DF844
:1017600005008DF8060001A802F0C4FF08B010BD06
:10177000001802400014014000BFFEE700B585B02C
:101780000221D54800F0ACFB00287DD00221D248D0
:1017900000F0CEFA6A460021CF4800F0C4FC40F2C7
:1017A00001210098884222D19DF80C009DF80B1071
:1017B00040EA012000B2C94908809DF80E109DF84A
:1017C0000D0041EA002000B2C54908809DF80F00D5
:1017D00001069DF8100041EA00419DF8110041EA20
:1017E00000209DF812100843BE4908608FE040F2C7
:1017F00002210098884222D19DF80C009DF80B1020
:1018000040EA012000B2B54948809DF80E109DF8CD
:101810000D0041EA002000B2B14948809DF80F0058
:1018200001069DF8100041EA00419DF8110041EACF
:1018300000209DF812100843AA49486067E040F272
:1018400003210098884224D19DF80C009DF80B10CC
:1018500040EA012000B2A14988809DF80E109DF851
:101860000D0041EA002000B29D4988809DF80F00DC
:1018700001069DF8100041EA00419DF8110041EA7F
:1018800000209DF8121000E024E10843954988608B
:101890003DE00098B0F5017F22D19DF80C009DF845
:1018A0000B1040EA012000B28C49C8809DF80E1050
:1018B0009DF80D0041EA002000B28949C8809DF8DA
:1018C0000F0001069DF8100041EA00419DF811004B
:1018D00041EA00209DF8121008438249C86016E0D2
:1018E00040F205210098884211D19DF80C009DF826
:1018F0000B1040EA012000B27B4908809DF80E10D1
:101900009DF80D0041EA002000B278490880009857
:101910001B2822D19DF80C009DF80B1040EA0120F5
:1019200000B2734908809DF80E109DF80D0041EA41
:10193000002000B26F4908809DF80F0001069DF855
:10194000100041EA00419DF8110041EA00209DF895
:101950001210084363490860BCE000982B2822D18C
:101960009DF80C009DF80B1040EA012000B2604980
:1019700048809DF80E109DF80D0041EA002000B24D
:101980005C4948809DF80F0001069DF8100041EA6F
:1019900000419DF8110041EA00209DF81210084313
:1019A0005049486096E000983B2822D19DF80C00F1
:1019B0009DF80B1040EA012000B24D4988809DF847
:1019C0000E109DF80D0041EA002000B249498880C0
:1019D0009DF80F0001069DF8100041EA00419DF8B6
:1019E000110041EA00209DF8121008433D4988602B
:1019F00070E000984B2822D19DF80C009DF80B1048
:101A000040EA012000B23A49C8809DF80E109DF8C6
:101A10000D0041EA002000B23649C8809DF80F0051
:101A200001069DF8100041EA00419DF8110041EACD
:101A300000209DF8121008432A49C8604AE0009827
:101A40001F2803D101202C49087043E000982F285B
:101A500003D10120284948703CE000983F2803D179
:101A600001202549887035E000984F2803D10120D6
:101A70002149C8702EE000981C2808D19DF80B0061
:101A80001E4908709DF80C001D49087022E000985E
:101A90002C2808D19DF80B00184948709DF80C00BF
:101AA0001749487016E000983C2808D19DF80B00B3
:101AB000124988709DF80C00114988700AE000985E
:101AC0004C2807D19DF80B000C49C8709DF80C00FC
:101AD0000B49C87005B000BD006400400400002040
:101AE0000C000020D804002000000020020000208C
:101AF000140000201C0000202400002028000020EA
:101B00002C00002010B50121044800F0E9F918B1BB
:101B10000121024800F00CF910BD000000640040F3
:101B200000B585B002216D4800F0DAF900287CD0BC
:101B300002216A4800F0FCF86A460021674800F07C
:101B4000F2FA67480068401C6549086040F20521C8
:101B50000098884258D19DF80C009DF80B1040EA7F
:101B6000012000EE100AB8EEC00A5E4880ED000ABF
:101B700090ED000ADFED5C0A80EE201A9FED5B0A13
:101B800021EE000A5A4880ED000A40F267115948D8
:101B9000D0ED000A564890ED000A574807F0B8FA11
:101BA000544880ED000A554890ED010A80ED000A86
:101BB000504890ED000A514880ED010A90ED010A6D
:101BC000D0ED000A30EE600A4D4880ED000A44482E
:101BD0000068322805D1494890ED000A494880ED57
:101BE000000A3F48006864280ED1444890ED010A7D
:101BF000444880ED010A90ED010AD0ED000A30EE74
:101C0000600A414880ED000A40F2062100988842AF
:101C100042D14FF480413D4801F0D0FC9DF80C00CA
:101C20009DF80B1040EA012000E055E000EE100A9C
:101C3000B8EEC00A364880ED000AD0ED000A9FEDEC
:101C40002A1A80EE810ADFED290A20EE200A3148A7
:101C500080ED000A40F267112F48D0ED000A2D48B0
:101C600090ED000A2D4807F053FA2B4880ED000A4A
:101C70002B4890ED010A80ED000A274890ED000AFC
:101C8000274880ED010A90ED010AD0ED000A30EE00
:101C9000600A244880ED000A11480068322805D106
:101CA0001F4890ED000A204880ED000A0C480068AB
:101CB000642811D11A4890ED010A1B4880ED010AF1
:101CC00090ED010AD0ED000A30EE600A174880ED71
:101CD000000A00200249086005B000BD006800400D
:101CE000780000203C00002000F8FF450000B443CD
:101CF00040000020440000207C0000205000002014
:101D00004800002060000020740000200014024001
:101D10003000002034000020380000208400002023
:101D2000580000204C0000206800002070000020B7
:101D3000B1F5007F3AD00FDC202928D006DC01293C
:101D40001CD004291DD0082940D11DE0402921D0F4
:101D5000B1F5807F3AD126E0B1F5004F31D006DCF5
:101D6000B1F5806F25D0B1F5006F2FD124E0B1F52A
:101D7000803F12D0B1F5003F28D111E0154A8260B2
:101D800025E00822C26022E01022C2601FE0082283
:101D900002611CE01022026119E00822426016E094
:101DA0001022426013E00422426010E004224260EC
:101DB0000DE0042242600AE00022826104224260B7
:101DC00005E0002282610422426000E000BF00BF03
:101DD000704700000101010010B50021837A012243
:101DE00002FA03F13D4A126842F001023B4B1A60CD
:101DF0003A4A1C3212688A43384B1C331A60027B01
:101E0000CAB9364A0C3212688A43344B0C331A6012
:101E10004288C38842EA0343304A4032847A42F817
:101E200034300288838842EA03432C4A4032847A61
:101E300002EBC4025360027B012A19D1274A0C32FB
:101E400012680A43254B0C331A604288038842EA21
:101E50000343224A4032847A42F83430C28883886D
:101E600042EA03431D4A4032847A02EBC4025360C3
:101E7000C27A3AB9194A121D12688A43174B1B1DC0
:101E80001A6006E0154A121D12680A43134B1B1D07
:101E90001A60028932B9114A143212688A430F4B10
:101EA00014331A600289012A06D10C4A14321268CE
:101EB0000A430A4B14331A60427B012A06D1074AAF
:101EC0001C3212680A43054B1C331A60034A12681D
:101ED00022F00102014B1A6010BD000000660040B4
:101EE00070B504460D46002660692840002871D070
:101EF000B5F5807F5CD010DC082D35D006DC012DD7
:101F000020D0022D24D0042D72D127E0102D31D005
:101F1000202D35D0402D6BD138E0B5F5004F60D085
:101F200009DCB5F5007F49D0B5F5806F4CD0B5F52B
:101F3000006F5DD14FE0B5F5803F2DD0B5F5003F86
:101F400056D12FE0A0682D4900F076FB064651E0FF
:101F5000E068032100F070FB06464BE0E0680821D2
:101F600000F06AFB064645E0E068102100F064FBE3
:101F700006463FE02069032100F05EFB064639E09B
:101F80002069082100F058FB064633E02069102143
:101F900000F052FB06462DE06068082100F04CFB83
:101FA000064627E06068102100F046FB064621E067
:101FB000A069012100F040FB06461BE0A069022158
:101FC00000F03AFB064615E0A069042100F034FB5E
:101FD00006460FE00FE0A069702100F02DFB0646D9
:101FE00008E06068042100F027FB064602E0FFE7F6
:101FF000002600BF00E00026304670BD0101010050
:102000001AB143690B43436102E043698B43436167
:10201000704730B5024600200023146824F0020403
:102020001460146844F00104146000E05B1C546800
:1020300004F001041CB94FF6FF74A342F6D15468B2
:1020400004F001040CB900206CE08C79012C04D15F
:10205000146844F08004146003E0146824F08004E1
:102060001460CC79012C04D1146844F0400414604D
:1020700003E0146824F0400414600C7A012C04D1AD
:10208000146844F02004146003E0146824F0200471
:1020900014604C7A012C04D1146844F010041460CC
:1020A00003E0146824F0100414608C7A012C04D12D
:1020B000146844F00804146003E0146824F0080471
:1020C0001460CC7A012C04D1146844F00404146028
:1020D00003E0146824F0040414608C78A407CD781D
:1020E00044EA05640D7944EA05444D7944EA05540F
:1020F0000D886D1E2C43D461146824F00104146013
:10210000002300E05B1C546804F001041CB14FF68E
:10211000FF74A342F6D1546804F001040CB100200E
:1021200000E0012030BD10B500F5D87303EB0113BA
:102130001B6803F004031372137A53B900F5D873C4
:1021400003EB01131B6840F2FF7404EA535313605E
:1021500009E000F5D87303EB01131B686FF06044CE
:1021600004EAD303536000F5D87303EB01131B6833
:1021700003F00203537200F5D87303EB01135B689D
:1021800003F00F03937200F5D87303EB01135B6840
:102190001B0AD37400F5D87303EB01139B68D37249
:1021A00000F5D87303EB01139B681C0A147300F548
:1021B000D87303EB01139B681C0C547300F5D873A0
:1021C00003EB01139B681B0E937300F5D87303EBAD
:1021D0000113DB68D37300F5D87303EB0113DB68DD
:1021E0001C0A147400F5D87303EB0113DB681C0C94
:1021F000547400F5D87303EB0113DB681B0E937462
:1022000021B9C36843F02003C36003E0036943F0CE
:102210002003036110BD10B502460020936803F04F
:102220008063B3F1806F00D110E0936803F0006326
:10223000B3F1006F01D1012008E0936803F08053EF
:10224000B3F1805F01D1022000E00420042874D0A3
:1022500002F5C07303EB00131B6803F0010402F5E1
:10226000C07303EB00131C600B7A7BB94B7A0C88AC
:1022700043EA445302F5C07404EB0014246823437A
:1022800002F5C07404EB0014236010E00B7A4C6874
:1022900043EAC4034C7A234302F5C07404EB0014F0
:1022A0002468234302F5C07404EB001423608B7A86
:1022B00003F00F038B7202F5C07303EB00135B682E
:1022C00023F00F0402F5C07303EB00135C6002F50A
:1022D000C07303EB00135B688C7A234302F5C07470
:1022E00004EB001463608B7B1C064B7B44EA0344C5
:1022F0000B7B44EA0323CC7A234302F5C07404EB3E
:102300000014A3608B7C1C064B7C44EA03440B7CCA
:1023100044EA0323CC7B234302F5C07404EB00148E
:10232000E36002F5C07303EB00131B6843F0010484
:1023300002F5C07303EB00131C6010BD1448B0F924
:10234000060000EE100AB8EEC00A124880ED010A3D
:102350001148B0F9140000EE100AB8EEC00A0D489A
:1023600080ED000AB0EE000A80ED040A9FED0B0A32
:1023700080ED050AB1EE040A80ED060A9FED080A19
:1023800080ED0B0A9FED070A80ED0C0A70470000F4
:102390000C000020B008002028050020CDCC4C3EC9
:1023A00000007A4400401C461448B0F9000000EEDA
:1023B000100AB8EEC00A124880ED010A1148B0F9BF
:1023C000000000EE100AB8EEC00A0D4880ED000AC9
:1023D000B0EE000A80ED040A9FED0B0A80ED050ABD
:1023E000B1EE040A80ED060A9FED080A80ED0B0AA3
:1023F0009FED070A80ED0C0A704700000C000020DA
:102400001408002028050020CDCC4C3E00007A4462
:1024100000401C4600B5FFF7C7FF00F06DF800F064
:1024200035F8FFF78BFF144800F0BEFFBDEEC00A81
:1024300010EE100A00B211490881114800F0B4FFF3
:10244000BDEEC00A10EE100A01B20C4841820D48E0
:1024500000F0AAFFBDEEC00A10EE100A01B2074854
:10246000C184094800F0A0FFBDEEC00A10EE100ABA
:1024700001B20248818300BD140800202805002015
:10248000480800207C080020B00800201448B0F95B
:10249000040000EE100AB8EEC00A124880ED010AEE
:1024A0001148B0F91E0000EE100AB8EEC00A0D483F
:1024B00080ED000AB0EE000A80ED040A9FED0B0AE1
:1024C00080ED050AB1EE040A80ED060A9FED080AC8
:1024D00080ED0B0A9FED070A80ED0C0A70470000A3
:1024E0000C0000207C08002028050020CDCC4C3EAC
:1024F00000007A4400401C461448B0F9020000EE87
:10250000100AB8EEC00A124880ED010A1148B0F96D
:102510000A0000EE100AB8EEC00A0D4880ED000A6D
:10252000B0EE000A80ED040A9FED0B0A80ED050A6B
:10253000B1EE040A80ED060A9FED080A80ED0B0A51
:102540009FED070A80ED0C0A704700000C00002088
:102550004808002028050020CDCC4C3E00007A44DD
:1025600000401C4610B50120304908704002486008
:1025700000212E4801734173082181732C4890ED8E
:10258000000ABDEEC00A10EE100A010A2748C17306
:10259000274890ED000ABDEEC00A10EE100AC1B245
:1025A00022480174224890ED010ABDEEC00A10EEE7
:1025B000100A010A1D4841741D4890ED010ABDEE44
:1025C000C00A10EE100AC1B218488174184890ED84
:1025D000020ABDEEC00A10EE100A010A1348C174C7
:1025E000134890ED020ABDEEC00A10EE100AC1B207
:1025F0000E4801750E4890ED030ABDEEC00A10EEBC
:10260000100A010A09484175094890ED030ABDEE18
:10261000C00A10EE100AC1B20448817500230A22D4
:1026200001460448006809F033F810BD6405002035
:10263000400E0020F40200200246002002EA0103BE
:102640000BB1012000E000207047000070B52DEDB7
:10265000068B0446FD48FE49096840F82140FC48C5
:102660000068401CFA490860F8480068552804D002
:1026700000200860BDEC068B70BDF54800680B2893
:1026800000DAF7E7F1484068512806D052287CD09C
:1026900053287BD054287AD10BE3EC498968EB4A64
:1026A000D26841EA0220FDF7A5FFEA4A03C2E749E2
:1026B0000969E64A526941EA0220FDF79BFFE54AB3
:1026C000C2E90201E1498969E04AD26941EA02208E
:1026D000FDF790FFDF4AC2E90401DC48006ADB49EC
:1026E000496A40EA0120642190FBF1F52846FDF794
:1026F00081FFD84AC2E90601104690ED001BB0EEFA
:10270000410AF0EE610A9FEDD41B53EC112B51EC02
:10271000100BFDF7B3FF10D2CE4890ED001BB0EECA
:10272000410AF0EE610A9FEDCE1B53EC112B51ECE8
:10273000100BFDF778FEC74A03C2C64890ED021B96
:10274000B0EE410AF0EE610A9FEDC31B53EC112B72
:1027500051EC100BFDF792FF11D2BE4890ED021B19
:10276000B0EE410AF0EE610A9FEDBD1B53EC112B58
:1027700051EC100BFDF757FEB64AC2E90201B5480D
:1027800090ED041BB0EE410A02E08EE0A5E18FE27D
:10279000F0EE610A9FEDB01B53EC112B51EC100BC6
:1027A000FDF76CFF11D2AB4890ED041BB0EE410A6F
:1027B000F0EE610A9FEDAA1B53EC112B51EC100BAC
:1027C000FDF731FEA34AC2E90401A24890ED001BC7
:1027D000B0EE410AF0EE610A9FEDA31B53EC112B02
:1027E00051EC100BFDF797FE41EC1A0B9FEDA00B7F
:1027F00053EC102BFDF71DFE41EC190B9FED9E0BCA
:1028000053EC102BFDF715FE41EC180BFDF74EFFB6
:102810009B4908608F4890ED021BB0EE410AF0EE34
:10282000610A9FED911B53EC112B51EC100BFDF73E
:1028300072FE41EC1A0B9FED8E0B53EC102BFDF743
:10284000F8FD41EC190B9FED8C0B53EC102BFDF7B1
:10285000F0FD41EC180BFDF729FF8A4908607D481F
:1028600090ED041BB0EE410AF0EE610A9FED7E1B75
:1028700053EC112B51EC100BFDF74DFE41EC1A0BF4
:102880009FED7B0B53EC102BFDF7D3FD41EC190BA7
:102890009FED790B53EC102BFDF7CBFD41EC180BA2
:1028A000FDF704FF7849086098E268498968674A3B
:1028B000D26841EA0220FDF79DFE744A03C26349D3
:1028C0000969624A526941EA0220FDF793FE6F4AA4
:1028D000C2E902015D4989695C4AD26941EA022084
:1028E000FDF788FE694AC2E904015848006A574961
:1028F000496A40EA0120642190FBF1F52846FDF782
:1029000079FE624AC2E90601104690ED001BB0EE66
:10291000410AF0EE610A9FED501B53EC112B51EC74
:10292000100BFDF7ABFE10D2584890ED001BB0EE37
:10293000410AF0EE610A9FED4A1B53EC112B51EC5A
:10294000100BFDF770FD514A03C2504890ED021B79
:10295000B0EE410AF0EE610A9FED3F1B53EC112BE4
:1029600051EC100BFDF78AFE11D2484890ED021B86
:10297000B0EE410AF0EE610A9FED391B53EC112BCA
:1029800051EC100BFDF74FFD404AC2E902013F48F0
:1029900090ED041BB0EE410AF0EE610A9FED2E1B94
:1029A00053EC112B51EC100BFDF768FE11D2374898
:1029B00090ED041BB0EE410AF0EE610A9FED281B7A
:1029C00053EC112B51EC100BFDF72DFD2F4AC2E9F2
:1029D00004012E4890ED001BB0EE410AF0EE610AB2
:1029E0009FED211B53EC112B51EC100BFDF793FDC8
:1029F00041EC190B9FED260B53EC102BFDF719FD45
:102A000041EC180BFDF752FE234908601F4890ED7A
:102A1000021BB0EE410AF0EE610A9FED131B53EC6E
:102A2000112B51EC100BFDF776FD41EC190B9FEDCE
:102A3000180B53EC102BFDF7FCFC41EC180BFDF7C9
:102A400035FE1649086011482AE00000580A0020A7
:102A5000BC020020D809002000000000C0FFDF40B9
:102A600000000000E0FFEF40000000000000E04038
:102A700000000000000030409A99999999992340EC
:102A8000AC020020A8020020A4020020F8090020C7
:102A90000000000000409F40B8020020B402002067
:102AA00090ED041BB0EE410AF0EE610A1FED121B1F
:102AB00053EC112B51EC100BFDF72DFD41EC190BD4
:102AC0001FED0D0B53EC102BFDF7B3FC41EC180B75
:102AD000FDF7ECFDE449086080E1E4498968E34AD8
:102AE000D26841EA0220FDF785FDE14A03C2DF49D1
:102AF0000969DE4A526941EA0220FDF77BFDDC4AA2
:102B0000C2E90201D9498969D84AD26941EA022059
:102B1000FDF770FDD64AC2E90401D448006AD349E2
:102B2000496A40EA0120642190FBF1F52846FDF74F
:102B300061FDCF4AC2E90601104690ED001BB0EEE0
:102B4000410AF0EE610A1FED3C1B53EC112B51ECD6
:102B5000100BFDF793FD10D2C54890ED001BB0EEB1
:102B6000410AF0EE610A1FED421B53EC112B51ECB0
:102B7000100BFDF758FCBE4A03C2BD4890ED021B86
:102B8000B0EE410AF0EE610A1FED4D1B53EC112B24
:102B900051EC100BFDF772FD11D2B54890ED021B00
:102BA000B0EE410AF0EE610A1FED531B53EC112BFE
:102BB00051EC100BFDF737FCAD4AC2E90201AC48FD
:102BC00090ED041BB0EE410AF0EE610A1FED5E1BB2
:102BD00053EC112B51EC100BFDF750FD11D2A44812
:102BE00090ED041BB0EE410AF0EE610A1FED641B8C
:102BF00053EC112B51EC100BFDF715FC9C4AC2E96C
:102C000004019B4890ED001BB0EE410AF0EE610A12
:102C10001FED6B1B53EC112B51EC100BFDF77BFCE4
:102C200041EC190B9FED930B53EC102BFDF701FCBE
:102C300041EC180BFDF73AFD904908608C4890ED87
:102C4000021BB0EE410AF0EE610A1FED791B53EC56
:102C5000112B51EC100BFDF75EFC41EC190B9FEDB5
:102C6000850B53EC102BFDF7E4FB41EC180BFDF743
:102C70001DFD834908607E4890ED041BB0EE410ABB
:102C8000F0EE610A1FED881B53EC112B51EC100B79
:102C9000FDF741FC41EC190B9FED760B53EC102B2B
:102CA000FDF7C7FB41EC180BFDF700FD7549086007
:102CB00094E06E4989686D4AD26841EA0220FDF7C6
:102CC00099FC714A03C269490969684A526941EA33
:102CD0000220FDF78FFC6C4AC2E902016349896951
:102CE000624AD26941EA0220FDF784FC664AC2E9E1
:102CF0000401104690ED001BB0EE410AF0EE610AAF
:102D00001FEDAB1B53EC112B51EC100BFDF7B6FC78
:102D100010D25D4890ED001BB0EE410AF0EE610A62
:102D20001FEDB11B53EC112B51EC100BFDF77BFB8E
:102D3000554A03C2544890ED021BB0EE410AF0EE32
:102D4000610A1FEDBB1B53EC112B51EC100BFDF76F
:102D500095FC11D24C4890ED021BB0EE410AF0EE0A
:102D6000610A1FEDC11B53EC112B51EC100BFDF749
:102D70005AFB454AC2E90201434890ED041BB0EEFC
:102D8000410AF0EE610A1FEDCC1B53EC112B51EC04
:102D9000100BFDF773FC11D23B4890ED041BB0EE15
:102DA000410AF0EE610A1FEDD21B53EC112B51ECDE
:102DB000100BFDF738FB344AC2E904012B48006AC6
:102DC0002A49496A40EA0120642190FBF1F528462E
:102DD000FDF710FC2C4AC2E9060100BF00BF00202D
:102DE0002A4908600AE000202049284A126841F870
:102DF000220026480068401C2449086023480068D7
:102E00000B28F0DB002021490860214800780128C8
:102E100027D11B48D0ED000A1E4890ED001A70EE35
:102E2000C10AB0EE600A32211B48D0ED000A1B48EF
:102E300006F06EF9184880ED000A1248D0ED000A3D
:102E4000174890ED001A70EEC10AB0EE600A322108
:102E50001448D0ED000A144806F05AF9114880EDE4
:102E6000000A00BF06E40000B0020020580A00205B
:102E7000180A00200000000000806640A002002028
:102E80009C02002098020020380A0020BC0200208A
:102E90008C02002054030020080200201C020020A5
:102EA00050030020040200202402002010B501205D
:102EB0000249087005F07AFF10BD0000680100208B
:102EC00010B50949094800F00BF958B14FF081518C
:102ED000064800F00FF80449044800F025F80120E6
:102EE0000349087010BD00000080201040640240BB
:102EF000680100200246094B9A4201D2084801E0CD
:102F00000648103801F000531BB1064B0B40C3605C
:102F100002E0044B0B4083607047000010640240E5
:102F2000006002407D0F7D0F0246094B9A4201D29C
:102F3000084801E00648103801F000531BB1064B69
:102F40000B40C36002E0044B0B40836070470000FD
:102F500010640240006002407D0F7D0F21B10268C5
:102F600042F00102026003E0026822F00102026006
:102F700070470000016821F001010160002101603B
:102F800041608160C1600161212141614A498842FB
:102F900004D13D21484A103A91608CE046491831ED
:102FA000884205D14FF47461434A103A916082E03F
:102FB00041493031884205D14FF474113E4A103AEC
:102FC000916078E03C494831884205D14FF0746106
:102FD000394A103A91606EE037496031884204D135
:102FE0003649354A103AD16065E033497831884234
:102FF00004D13349304A103AD1605CE02E49903117
:10300000884204D12F492C4A103AD16053E02A4912
:10301000A831884205D14FF03D51274A103AD1607E
:1030200049E02949884204D13D21274A083A1160E4
:1030300041E025491831884205D14FF47461224A94
:10304000083A116037E020493031884205D14FF409
:1030500074111D4A083A11602DE01B49483188421D
:1030600005D14FF07461184A083A116023E01649FF
:103070006031884204D11149134A121F11601AE0CD
:1030800011497831884204D10D490F4A121F11604D
:1030900011E00D499031884204D10A490A4A121FB1
:1030A000116008E00849A831884204D14FF03D5131
:1030B000054A121F11607047106002403D00002059
:1030C000400F002000003D20106402400146002017
:1030D0000A6802F001020AB1012000E000207047F6
:1030E00070B50246002000240025124EB24201D2E3
:1030F000114B01E00F4B103B104E0E4036B11E2617
:1031000006EAD124166806EA040502E0566906F0CC
:10311000800501F000560EB15C6800E01C68084EA6
:10312000344004EA010616B10DB1012000E0002090
:1031300070BD000010640240006002403C0F3C0F74
:103140007D0F7D0F10B501F080034BB122B14369B3
:1031500043F08003436103E0436923F0800343614C
:1031600080290BD02AB1036801F01E0423430360B9
:1031700004E0036801F01E04A343036010BD0000D7
:1031800010B500220268134B1A40CC680B68234329
:103190004C6923438C692343CC6923430C6A234342
:1031A0004C6A23438C6A23434C6B23438C6B23432D
:1031B0001A430260426922F00702D1E90B3423432B
:1031C0001A4342610B6943604B6883608B68C3603C
:1031D00010BD00003F801CF0416070477047000048
:1031E000194890ED000AB8EEC00A184880ED000AB0
:1031F0001748B0F9000000EE100AB8EEC00A1348F4
:1032000080ED010A134890ED000A104880ED020A93
:10321000114890ED000A0D4880ED040A0F4890ED2A
:10322000000A0A4880ED050A0D4890ED000A07489B
:1032300080ED060A0B4890ED000AB8EEC00A03487C
:1032400080ED0C0A70470000C802002044070020EF
:1032500002000020B001002068C200086CC2000813
:1032600070C20008F0C1000810B5044601200E49E4
:10327000087040F2FF10486000210B480173417351
:1032800008218173210AC17304740021417481747F
:10329000C17401754175817500230A2201460348F6
:1032A000006808F0F5F910BD880E0020F402002037
:1032B00010B53648007800284BD035480068012802
:1032C0001DD134480068344908603448B0F9000022
:1032D00064283EDA3148B0F90000002839DD304872
:1032E0000068401C2E49086008460068B0F5FA7F67
:1032F0002FDB0020086002202549086029E02448CF
:10330000006802281FD12348006840422249086013
:103310002248B0F9000010F1640F1ADD1F48B0F91F
:103320000000002815DA1E480068401C1C4908608F
:1033300008460068B0F5FA7F0BDB0020086001202A
:103340001349086005E01248006810B900201249CE
:1033500008600E480078012809D140F24C4111481C
:1033600002F0FAFA40F24C410E4802F0F7FA074830
:103370000078022809D14FF47A710A4802F0ECFA79
:103380004FF47A71074802F0E9FA10BDCC02002030
:10339000C002002074C20008C80200200200002001
:1033A000E80200200008004090ED030A80ED020AC8
:1033B00090ED000AD0ED010A30EE600A80ED030ABC
:1033C00090ED040AD0ED030A20EE200A80ED070AF2
:1033D00090ED030AB5EEC00AF1EE10FA02DD90EDB1
:1033E000030A03E090ED030AB1EE400AF6EE000A8C
:1033F000B4EEE00AF1EE10FA07DD90ED030AD0ED2D
:10340000080A30EE200A80ED080A90ED080AD0ED97
:103410000B0AB4EEE00AF1EE10FA02DD90ED0B0AB1
:1034200001E090ED080A80ED080A90ED080AD0ED61
:103430000B0AF1EE600AB4EEE00AF1EE10FA04D2E3
:1034400090ED0B0AB1EE400A01E090ED080A80ED24
:10345000080A90ED030AD0ED020A30EE600AD0EDC2
:10346000060A20EE200A80ED090A90ED070AD0ED49
:10347000050A90ED081A00EE810AD0ED090A30EE37
:10348000200A80ED0A0A90ED0A0AD0ED0C0AB4EE8B
:10349000E00AF1EE10FA02DD90ED0C0A01E090ED89
:1034A0000A0A80ED0A0A90ED0A0AD0ED0C0AF1EE44
:1034B000600AB4EEE00AF1EE10FA04D290ED0C0AC4
:1034C000B1EE400A01E090ED0A0A80ED0A0A90EDA3
:1034D0000A0A7047F0B50A4600210023002400BF05
:1034E0003DE0012505FA01F3156805EA03049C4255
:1034F00034D105684F000326BE40B54305601579F9
:103500004E00B5400668354305601579012D02D09F
:103510001579022D16D185684F000326BE40B543AC
:10352000856055794E00B5408668354385604568AD
:1035300001268E40B5434560456896798E40B6B207
:1035400035434560C5684F000326BE40B543C5609E
:10355000D5794E00B540C6683543C560491C102971
:10356000BFD3F0BDF0B5002300244D07ED0E02FAE5
:1035700005F3CE1000F1200555F826504E07F70E42
:103580000F26BE40B543CF1000F1200646F8275065
:10359000CE1000F1200555F8265045EA0304CE1060
:1035A00000F1200545F82640F0BD024600201369D1
:1035B0000B400BB1012000E00020704741837047B1
:1035C000018370472DE9F0432DED028B87B006464D
:1035D0000C46F0EE408A182101A8FCF778FE4FF067
:1035E00000090BE009F1010006EB800090ED000AF4
:1035F00006EB890080ED000A09F10109601E4845CB
:10360000F0DC06EB8000C0ED008A002709E006EB45
:10361000870090ED000A01A800EB870080ED000A0A
:103620007F1CA742F3DB4FF000082DE0002524E0CB
:1036300001A800EB850090ED000A01A9681C01EBD0
:103640008000D0ED000AB4EEE00AF1EE10FA13DDCE
:1036500001A800EB850090ED008A681C01EB80005A
:1036600090ED000A01A800EB850080ED000A681CBF
:1036700001EB800080ED008A6D1CA4EB0800401E69
:10368000A842D5DC08F10108601E4045CEDC04F0FC
:10369000010000280BDD601C00EBD071491001AA6D
:1036A00002EB810191ED000AB0EE408A19E020465C
:1036B00004EBD072521001AB03EB820292ED000AD0
:1036C000214604EBD1725210521C03EB8202D2ED60
:1036D000000A30EE200AF0EE000A80EE201AB0EE6A
:1036E000418AB0EE480A07B0BDEC028BBDE8F0831A
:1036F00000BFFEE700B52DED108B93B0FE48B0F98A
:10370000000000EE100AB8EEC00ADFEDFC0A20EE61
:10371000200AF0EE408AF848B0F9020000EE100AE4
:10372000B8EEC00ADFEDF50A20EE200AB0EE409AAE
:10373000F148B0F9040000EE100AB8EEC00ADFED5F
:10374000EF0A20EE200AF0EE409AED48B0F90000B2
:1037500000EE100AB8EEC00AB0EE40BAE848B0F980
:10376000020000EE100AB8EEC00AB0EE40AAE4482B
:10377000B0F9040000EE100AB8EEC00AF0EE40AA5C
:10378000E04890ED000A20EE000AF0EE40EA90EDED
:10379000000ADD48D0ED000A20EE200A8DED120A65
:1037A000D84890ED000AD948D0ED000A20EE200A52
:1037B0008DED110AD44890ED000A20EE000AB0EE1B
:1037C00040FA90ED000AD248D0ED000A20EE200A1F
:1037D0008DED100ACD4890ED000A20EE000AF0EEC3
:1037E00040FA90ED000ACA48D0ED000A20EE200A07
:1037F0008DED0F0A90ED000A20EE000A8DED0E0A05
:10380000C44890ED000A20EE000A8DED0D0AC24872
:1038100090ED000A20EE000A8DED0C0ABF4890EDF5
:10382000000A20EE000A8DED0B0ABD4890ED000A5B
:1038300020EE000A8DED0A0AB74890ED000AB7485D
:10384000D0ED000A20EE200A8DED090AB14890ED76
:10385000000AB348D0ED000A20EE200A8DED080AD8
:10386000AD4890ED000AB1EE400A20EE280AAB48C0
:10387000D0ED000A00EEC90AA948D0ED000A00EE1A
:10388000E90AA448D0ED000A9FEDA61A40EE010A0D
:10389000C0ED000A90ED000A20EE280A9F48D0ED06
:1038A000000A00EEA90A9E48D0ED000A00EEC90AFF
:1038B0009948D0ED000A9FED9B1A40EE010AC0ED39
:1038C000000A944890ED000A20EE090A9248D0EDD3
:1038D000000A00EEE90A9248D0ED000A00EEA80ABC
:1038E0008E48D0ED000A9FED8F1A40EE010AC0ED20
:1038F000000A884890ED000A20EE290A8648D0ED9B
:10390000000A00EE890A8548D0ED000A00EEE80AB8
:103910008348D0ED000A9FED831A40EE010AC0ED06
:10392000000A9DED0D0ADDED0C0A70EE200A9DEDFA
:103930000B0A70EE800A9DED0A0A30EE800A10EE46
:10394000101A0846FCF786FECDE904019DED040B34
:1039500004F0CEF88DED060B9DED060B51EC100B2F
:10396000FCF7A4FE08EE100A6A4890ED000AC0EECB
:10397000080AC0ED000A684890ED000AC0EE080A87
:10398000C0ED000A654890ED000AC0EE080AC0EDDF
:10399000000A634890ED000AC0EE080AC0ED000A74
:1039A0002BEE0A0A20EE2A0AB5EEC00AF1EE10FA52
:1039B00003D113B0BDEC108B00BD2BEE0B0A0AEE49
:1039C0000A0A0AEEAA0A10EE101A0846FCF742FE8E
:1039D000CDE904019DED040B04F08AF88DED060B92
:1039E0009DED060B51EC100BFCF760FE08EE100A83
:1039F0008BEE080AB0EE40BA8AEE080AB0EE40AA92
:103A00008AEE880AF0EE40AA9DED100ADDED110A5B
:103A100030EE600AF0EE000A60EE20BA9DED120A68
:103A2000DDED0F0A30EE200AF0EE000A20EE20CA8B
:103A30003EEECF0A70EE6F0A9DED0E0A70EE80CA60
:103A40002AEE2C0AB0EE40DA0AEECCDA2AEEAB0A05
:103A5000F0EE40DA4BEE6CDA2BEE0C0AB0EE40EAF8
:103A60000AEE6BEA304890ED000ADFED2E0A0DEE0B
:103A7000200A80ED000A2D4890ED000ADFED290AAA
:103A80000DEEA00A80ED000A294890ED000ADFED56
:103A9000250A0EEE200A80ED000AF7EE080AB0EEC5
:103AA000680A00EE8D0A2048D0ED000A30EE200AA8
:103AB000F0EE408AF7EE080AB0EE490A00EEAD0AD1
:103AC0001A48D0ED000A30EE200AB0EE409AF7EE28
:103AD000080AB0EE690A00EE8E0A1548D0ED000A19
:103AE00030EE200AF0EE409A074890ED000AB1EE61
:103AF000400A20EE280A1DE0B800002089A18B3A78
:103B000088030020AC030020B0030020B403002091
:103B1000B8030020BC030020C0030020C403002021
:103B2000C80300206F12033AA0030020A403002062
:103B3000A8030020E848D0ED000A00EEC90AE748D3
:103B4000D0ED000A00EEE90AE548D0ED000A1FEDCD
:103B50000B1A40EE010AC0ED000A90ED000A20EEBB
:103B6000280ADD48D0ED000A00EEA90ADB48D0EDB6
:103B7000000A00EEC90ADB48D0ED000A1FED171A53
:103B800040EE010AC0ED000AD54890ED000A20EE93
:103B9000090AD448D0ED000A00EEE90ACF48D0ED7A
:103BA000000A00EEA80ACC48D0ED000A1FED231A47
:103BB00040EE010AC0ED000AC94890ED000A20EE6F
:103BC000290AC848D0ED000A00EE890AC248D0EDA3
:103BD000000A00EEE80AC148D0ED000A1FED2F1AD6
:103BE00040EE010AC0ED000A3EEE8F0A70EE2F0A89
:103BF0009DED0E0A30EE800A10EE101A0846FCF712
:103C000029FDCDE904019DED040B03F071FF8DED5D
:103C1000060B9DED060B51EC100BFCF747FD08EE73
:103C2000100AAF4890ED000AC0EE080AC0ED000A85
:103C3000AC4890ED000AC0EE080AC0ED000AA648A4
:103C400090ED000AC0EE080AC0ED000AA34890ED0E
:103C5000000AC0EE080AC0ED000AA34890ED000A71
:103C6000F8EE000A20EE200AD0ED000A20EE200A2D
:103C70009E48D0ED000AB0EE001A60EE810A90ED89
:103C8000001A00EEC10AF7EE000A30EE200A10EE2C
:103C9000101A0846FCF7DEFCCDE90201944890EDCD
:103CA000000AF0EE000A60EE200A8F4890ED000A4C
:103CB00020EE800A8F48D0ED000AB0EE001A60EEC8
:103CC000810A8A4890ED001A00EE810A10EE101A5F
:103CD0000846FCF7BFFCCDE900019DED021B9DED00
:103CE000000B03F045FD8DED040B9FED830B53ECB2
:103CF000102B9DED040B51EC100BFCF79AFBCDE95A
:103D000006019DED060B51EC100BFCF7CFFC7C4936
:103D10000860084690ED000ADFED7A0A80EE201A6E
:103D20009FED790A21EE000ADFED770A60EE200AA6
:103D30009FED761A80EE810AF3EE090A80EE201AD2
:103D40009FED710A21EE000ADFED710A80EE201A64
:103D50009FED6D0A21EE000A6E4880ED020A64486C
:103D6000D0ED000AB8EE000A60EE800A90ED000A7D
:103D700020EE800A5C48D0ED000AB0EE001A60EE3A
:103D8000810A90ED001A00EEC10AF7EE000A30EE4B
:103D9000200A10EE101A0846FCF75CFCCDE902017F
:103DA000514890ED000AF0EE000A20EE200A4F483C
:103DB000D0ED000A20EE200A4E48D0ED000AB0EE09
:103DC000001A60EE810A4A4890ED001A00EE810A5E
:103DD00010EE101A0846FCF73DFCCDE900019DED00
:103DE000021B9DED000B03F0C3FC8DED040B9FED5A
:103DF000420B53EC102B9DED040B51EC100BFCF718
:103E000018FBCDE906019DED060B51EC100BFCF7FC
:103E10004DFC00EE100A3F4880ED000A90ED000ACC
:103E2000DFED3D0A60EE200A9FED3C1A80EE810A2C
:103E3000DFED350A20EE200A80ED000A2C4890EDD7
:103E4000000AF8EE000A20EE200A2848D0ED000A09
:103E500020EE200A2748D0ED000AB0EE001A60EEEE
:103E6000810A214890ED001A00EE810A10EE101A26
:103E70000846FCF7EFFBCDE902019DED020B03F0D4
:103E80005BF98DED040B9FED1C0B53EC102B9DED9E
:103E9000040B51EC100BFCF7CCFACDE906019DEDBB
:103EA000060B51EC100BFCF701FC00EE100A194850
:103EB00080ED010A90ED010ADFED170A20EE200ADD
:103EC000DFED160A80EE201A9FED0F0A21EE000AA0
:103ED00080ED010A00BF6CE5B4030020B8030020A8
:103EE000AC030020B0030020C4030020C80300205E
:103EF000C0030020BC0300200000006066A64C4008
:103F00009C030020002041440000B4430000AF4364
:103F10000000B143AC0E0020C005E13E0080C2436A
:103F200010B530216A2000F085FB0A2005F052F818
:103F30000D21242000F07EFB0A2005F04BF80E2115
:103F4000282000F077FB0A2005F044F88E2131206C
:103F500000F070FB0A2005F03DF801210B2000F075
:103F600075F8002000F055F8102801D0012010BD90
:103F70000A2005F02FF800210A2000F067F80A2037
:103F800000F047F808B10220F1E70A2005F022F816
:103F900000210B2000F05AF80B2000F03AF808B18D
:103FA0000320E4E70A2005F015F82421412000F061
:103FB0004DF8412000F02DF8242801D00420D6E748
:103FC0000A2005F007F8C021422000F03FF8422007
:103FD00000F01FF8C02801D00520C8E70A2004F02F
:103FE000F9FF00212A2000F025FB0A2004F0F2FF4F
:103FF0000021342000F01EFB0A2004F0EBFF062213
:1040000003210E2000F02CFB642004F0E3FF0020CD
:10401000ADE770B504462146322000F00BFB0A20C4
:1040200004F0D8FF8021342000F004FB0A2004F0C3
:10403000D1FF352000F0E8FA05460021342000F0D9
:10404000F9FA0A2004F0C6FF284670BD70B5044690
:104050000D4600212A2000F0EDFA022004F0BAFFFC
:104060002146292000F0E6FA022004F0B3FF294699
:10407000642000F0DFFA022004F0ACFF81212A2046
:1040800000F0D8FA0A2004F0A5FF70BD7848B0F916
:104090000A00404200EE100AB8EEC00A7548D0EDA2
:1040A000000A20EE200A744880ED000A7048B0F93A
:1040B0000C0000EE100AB8EEC00A7048D0ED000AFD
:1040C00020EE200A6E4880ED000A6E480078D8B9CC
:1040D000694890ED000AB5EEC00AF1EE10FA03D27D
:1040E00002206949087012E0634890ED000AB5EEBD
:1040F000C00AF1EE10FA03DD01206349087006E002
:1041000000206149087002E000205F4908705F48A4
:10411000407820B15D48C07808B1012000E000205F
:10412000012829D05948407878B15848007A20B9F8
:104130004FF42F705649086003E04FF42F70544934
:10414000086001205349087019E05048C07868B1F0
:104150004E48007A18B950484D49086002E04E4870
:104160004B49086001204B49087008E0002049498C
:1041700008704749086002E000204549086043484C
:10418000807820B14148007908B1012000E000208A
:10419000012829D03D48807868B13C48007A18B998
:1041A0003D483E49086002E03B483C490860012028
:1041B0003B4908701BE03548007978B13348007AF4
:1041C00020B94FF42F703549086003E04FF42F7089
:1041D0003249086001203249087008E00020304967
:1041E00008702E49086002E000202C49086027482A
:1041F000407920B12548807908B1012000E00020F5
:10420000012830D02148407978B12048007A20B97F
:104210004FF4AF702349086003E04FF4AF702149B9
:10422000086001202049087020E01848807968B1B2
:104230001648007A18B91D481A49086002E01B4860
:10424000184908600120184908700FE018480078E4
:1042500028B90D48007810B90020124908600020E4
:104260001149087002E000200E4908607047000004
:10427000FC04002080C200082001002084C2000845
:104280002C0100206B0200206C010020F0080020AF
:10429000F80000206402002044FDFFFFFC00002025
:1042A000630200200001002065020020A2FEFFFF43
:1042B0006902002070B504460025002035490860D9
:1042C000486088603449086048608860012033494C
:1042D0000870254632E000F097F82F480068304912
:1042E000B1F9001008442C490860084640682C4980
:1042F000B1F90210084428494860084680682849F6
:10430000B1F904100844244988602248006825490E
:10431000B1F9001008441F49086008464068214967
:10432000B1F9021008441B494860084680681D49DD
:10433000B1F904100844174988606D1E002DCADCCD
:104340001548006890FBF4F000B217490880124845
:10435000406890FBF4F000B248800F48806890FB02
:10436000F4F000B288800B48006890FBF4F000B2D3
:104370000E4908800748406890FBF4F000B248807E
:104380000448806890FBF4F000B288800020034964
:10439000087070BD8C05002098050020A400002046
:1043A000B2000020B8000020A6000020AC000020D1
:1043B00010B586B000F0E8FA752000F025F97028F5
:1043C0001DD1002414220F4901A8FBF767FF6420C8
:1043D00004F000FE00BF0DE001AA02EB4402517898
:1043E00001AA12F8140000F025F9012004F0F2FDF2
:1043F000601CC4B20A2CEFDB012006B010BD002007
:10440000FBE7000088C2000810B540217448FFF7A0
:10441000D5F8BB2000F030FB002406E0FF2000F0C0
:104420002BFB70490855601CC4B20E2CF6DB6E489D
:10443000007800287ED16B4840786A49097840EAC4
:1044400001206A490988401A00B269490880654814
:10445000C0786449897840EA012064494988401A53
:1044600000B2634948805F4840795E49097940EA73
:10447000012000B25E4988805A48407A5949097A39
:1044800040EA01205B490988401A00B25A49088075
:104490005448C07A5349897A40EA012055494988ED
:1044A000401A00B2544948804E48407B4D49097B30
:1044B00040EA01204F498988401A00B24E4988805D
:1044C0004848C0794749897940EA012000B24B4900
:1044D00008800846B0F9000000F209206421484332
:1044E000222190FBF1F048F6B801084400EE100AD2
:1044F000B8EEC00A424880ED000A90ED000ADFEDF8
:10450000410A80EE201A80ED001A3B48B0F9000005
:1045100010F1040F07DD3848B0F90000042802DA72
:104520000020354908803448B0F9020010F1040F2A
:1045300009DD00E016E03048B0F90200042802DA94
:1045400000202D4948802C48B0F9040010F1040FD8
:1045500041DD2948B0F9040004283CDA002026494E
:10456000888038E020480078A8B31E4840781D496C
:10457000097840EA012000B21D4908801948C07836
:104580001849897840EA012000B219494880154845
:1045900040791449097940EA012000B21449888021
:1045A0001048407A0F49097A40EA012000B21249C6
:1045B00008800C48C07A0B49897A40EA012000B291
:1045C0000D4948800748407B0649097B40EA0120A5
:1045D00000B20949888040210148FEF7F1FF10BD73
:1045E000001402407C050020A4000020A60000204A
:1045F000B2000020AC000020B8000020C400002061
:10460000C000002000007A4470B5044640210848EC
:10461000FEF7D4FF44F0800000F02EFAFF2000F0F7
:104620002BFA054640210248FEF7CAFF284670BD16
:104630000014024070B505460C4640210748FEF7BD
:10464000BDFF284600F018FA0646204600F014FA8E
:1046500040210248FEF7B4FF304670BD001402400E
:1046600070B504460E46154621462820FFF7E2FFA6
:10467000022004F0AFFC0A212920FFF7DBFF022013
:1046800004F0A8FC01216420FFF7D4FF022004F00D
:10469000A1FC44F080012520FFF7CCFF022004F0AC
:1046A00099FC31462620FFF7C5FF022004F092FC5A
:1046B00003213420FFF7BEFF022004F08BFC03210E
:1046C0006720FFF7B7FF022004F084FC81212A2035
:1046D000FFF7B0FF062004F07DFC45F080012720A5
:1046E000FFF7A8FF072004F075FC70BD00BFFEE7D0
:1046F0007047000070B5002100230F22C4781CB35E
:10470000174C246804F4E064C4F5E064C4F30721A2
:10471000C1F10404E3B20A4144789C40E1B28478D8
:10472000144021430C07210E0E4C05786155047886
:1047300004F01F050124AC4005786D11AD0005F1B2
:10474000E025C5F8004109E0047804F01F050124C4
:10475000AC40054D0678761145F8264070BD000046
:104760000CED00E000E400E080E100E002490143DC
:10477000024A1160704700000000FA050CED00E0ED
:10478000BFF34F8F0648006800F4E0600549084316
:10479000001D03490860BFF34F8F00BFFEE7000014
:1047A0000CED00E00000FA0570B504460D4602204D
:1047B0000E49087040F2FF10486000210B48017359
:1047C000417308218173210AC1730474290A417459
:1047D00085740021C17401754175817500230A2219
:1047E00001460348006806F053FF70BD700E0020BC
:1047F000F402002010B5FFF707FEFCF7A3F910BD87
:1048000029B1064A12680243044B1A6004E0034AC5
:1048100012688243014B1A60704700003038024032
:1048200029B1064A12680243044B1A6004E0034AA5
:1048300012688243014B1A60704700004038024002
:1048400029B1064A12680243044B1A6004E0034A85
:1048500012688243014B1A60704700002038024002
:1048600029B1064A12680243044B1A6004E0034A65
:1048700012688243014B1A607047000044380240BE
:1048800029B1064A12680243044B1A6004E0034A45
:1048900012688243014B1A607047000024380240BE
:1048A000F0B5002100220024022500260223324F09
:1048B0003F6807F00C0121B1042905D0082937D140
:1048C00005E02E4F076036E02D4F076033E02A4F9A
:1048D0003F1F3F68C7F38056274F3F1F3F6807F0D1
:1048E0003F036EB1264FB7FBF3F7DFF88CC0ACF196
:1048F000040CDCF800C0CCF3881C07FB0CF40CE0C3
:104900001E4FB7FBF3F7DFF870C0ACF1040CDCF816
:1049100000C0CCF3881C07FB0CF4174F3F1F3F6807
:10492000C7F301477F1C7D00B4FBF5F7076002E089
:10493000124F076000BF00BF0F4F3F6807F0F00144
:104940000909104F7A5C0768D74047600A4F3F68F3
:1049500007F4E051890A0B4F7A5C4768D7408760BB
:10496000054F3F6807F46041490B064F7A5C476882
:10497000D740C760F0BD0000083802400024F400B2
:10498000001BB7002D04002000B587B001210805E9
:10499000FFF766FF01212020FFF732FF05220921E2
:1049A0003348FEF7DFFD052208213148FEF7DAFD26
:1049B000052207212E48FEF7D5FD4FF460700590C3
:1049C00002208DF8180003208DF8190000208DF8C2
:1049D0001A0001208DF81B0005A92548FEF77AFD75
:1049E0004020059001208DF8180003208DF8190053
:1049F00000208DF81A0001208DF81B0005A91C4825
:104A0000FEF768FD40211A48FEF7DAFD4FF46071A9
:104A10001748FEF7D5FD0021164800F057F8002092
:104A2000ADF800004FF48270ADF802000020ADF840
:104A30000400ADF80600ADF808004FF40070ADF8C2
:104A40000A003020ADF80C000020ADF80E000A205E
:104A5000ADF810006946074800F052F801210548FA
:104A600000F034F8FF2000F007F807B000BD0000A8
:104A7000001402400050014070B50546002405E0D6
:104A8000601CC4B2FA2C01DD002070BD02210E486A
:104A900000F028F80028F3D029460B4800F02EF843
:104AA000002405E0601CC4B2FA2C01DD0020ECE714
:104AB0000121054800F016F80028F3D0024800F064
:104AC0001AF8C0B2E1E700000050014021B10288AD
:104AD00042F04002028004E002884FF6BF731A40A1
:104AE000028070470246002013890B400BB1012061
:104AF00000E0002070470146888970478181704737
:104B000010B50022028802F441520B884C882343DE
:104B10008C882343CC8823430C8923434C8923432B
:104B20008C892343CC8923431A430280838B4FF221
:104B3000FF74234083830B8A038210BD0CB50020D1
:104B4000019000904148006840F480303F4908607F
:104B500000BF3E48006800F4003000900198401CFF
:104B60000190009818B90198B0F5A04FF1D13748DD
:104B7000006800F4003010B10120009001E0002036
:104B800000900098012860D130484030006840F023
:104B900080502E49403108602D48006840F4404064
:104BA0002B49086029480830006828490831086006
:104BB0000846006840F4004008600846006840F479
:104BC000A05008602348091F0860081F006840F0D3
:104BD0008070091F086000BF1C48006800F000706A
:104BE0000028F9D01A48006840F48030184908605D
:104BF00000BF1748406800F480300028F9D01448FE
:104C0000006840F400301249086000BF1048406856
:104C100000F400300028F9D040F205700E49086019
:104C20000A480830006820F003000849083108608D
:104C30000846006840F00200086000BF03480830E2
:104C4000006800F00C000828F8D10CBD00380240C4
:104C5000007000400C544007003C024010B500BFFB
:104C6000502080F31188BFF34F8FBFF36F8F00BFC9
:104C700006F06AFF18B14FF080500449086000BF89
:104C8000002080F3118800BF10BD000004ED00E09B
:104C900010B51548006840F47000134908601348C7
:104CA000006840F001001149086000200F490831F8
:104CB00008600E4800680E4908400C4908600D481D
:104CC000091D0860081F006820F48020091F086083
:104CD000002006490C310860FFF730FF4FF00060FC
:104CE00001498039086010BD88ED00E000380240BD
:104CF000FFFFF6FE10300024F0B50C4615460021EB
:104D00000022068C4FF6FE773E400684018B028C13
:104D10004FF60C7631407E1C06EA03162E433143D3
:104D20004FF6F576324044F00106324301830284A7
:104D3000F0BDF0B50C461546002100220026078C78
:104D40004FF6EF7C07EA0C070784018B028C4FF6C5
:104D5000FF7707EA041640F6FF4739404FF6FF7722
:104D600007EA033739434FF6FF7707EA0527394348
:104D70004FF65F773A4046F010073A4301830284CA
:104D8000F0BDF0B50C461546002100220026078C28
:104D90004FF6FF6C07EA0C070784818B028C4FF6F5
:104DA000FF7707EA04264FF60C7739404FF6FF7776
:104DB00007EA03172F4339434FF2FF573A4046F4AF
:104DC00080773A4381830284F0BDF0B50C461546E6
:104DD000002100220026078C4EF6FF7C07EA0C0714
:104DE0000784818B028C4FF6FF7707EA043640F682
:104DF000FF4739404FF6FF7707EA052739434FF65B
:104E0000FF7707EA0337394345F6FF773A4046F420
:104E100080573A4381830284F0BD000010B52DED28
:104E2000068B0221480700F039FC002846D00121FA
:104E3000984880F89B100221480700F00BFC954829
:104E400090F8980070B901219348FEF7AEFB012855
:104E500034D18007416B8F48C0F89010012180F851
:104E600098102BE08B4890F89800012826D18007F5
:104E7000416B8848C0F89410002180F898100146D2
:104E8000D1F89420D1F89010501AFBF7B3FB41EC05
:104E90001A0B9FED820B53EC102BFBF7CAFA41EC77
:104EA000190B9FED800B53EC102BFBF734FB41ECFF
:104EB000180BFBF7FBFB7749C1F89C00042108079E
:104EC00000F0ECFB002848D00121724880F88710E0
:104ED0000421080700F0BEFB6E4890F8840078B902
:104EE00002216D48FEF761FB012836D1800700F0F2
:104EF000C3FB6849C8670121664880F884102CE02C
:104F0000644890F88400012827D1800700F0B4FBA2
:104F10006049C1F8800000215E4880F88410014695
:104F2000D1F88020C96F501AFBF764FB41EC1A0BD3
:104F30009FED5A0B53EC102BFBF77BFA41EC190B4E
:104F40009FED580B53EC102BFBF7E5FA41EC180BD7
:104F5000FBF7ACFB4F49C1F888000821C80600F0F8
:104F60009DFBD0B301214B4880F873100821C8067F
:104F700000F070FB474890F8700078B9042146486B
:104F8000FEF713FB012835D1800700F078FB41497B
:104F9000886601213F4880F870102BE03D4890F86A
:104FA0007000012826D1800700F069FB3949C866E6
:104FB0000021384880F870100146CA6E896E501A78
:104FC000FBF718FB41EC1A0B9FED340B53EC102B45
:104FD000FBF72FFA41EC190B00E00BE09FED310BD2
:104FE00053EC102BFBF797FA41EC180BFBF75EFB29
:104FF000284948671021880600F050FBF0B30121D2
:10500000244880F85F101021880600F023FB214817
:1050100090F85C0078B908211F48FEF7C6FA01280D
:1050200035D1800700F02EFB1A4948650121194847
:1050300080F85C102BE0174890F85C00012826D11E
:10504000800700F01FFB134988650021114880F894
:105050005C1001468A6D496D501AFBF7CBFA41ECA2
:105060001A0B9FED0E0B53EC102BFBF7E2F941EC02
:10507000190B9FED0C0B53EC102B00E007E0FBF736
:105080004AFA41EC180BFBF711FB02490866BDEC2C
:10509000068B10BDC40E002000000240C3F5285C42
:1050A0008FC2D53F000000000000004010B5012174
:1050B000114800F0F3FAE8B101210F4800F0CAFAF4
:1050C00001210E48FEF77AFA0D480068401C0C4991
:1050D00008600846006842F2107188420ADB00202E
:1050E000074908600021074800F03AFC0121034805
:1050F000FEF766FA10BD00000014004000200240D8
:10510000100400200004014010B52DED068B012194
:10511000FE4800F0C3FAB0B10121FC4800F09AFA51
:1051200000200EE000EB8001F94A02EB8101097BCF
:10513000012905D100EB8002F54B03EB820251738C
:10514000401C0428EEDB0221F04800F09EFA012802
:105150007ED10121EE4880F84B1090F84800E0B96C
:105160002021EC48FEF721FA012809D1E748343024
:105170000168E74801640221E44800F06BFA6AE044
:105180000221E24800F066FAE14890F84800401E2B
:10519000C1B2DF4880F848105DE0DD4890F8480073
:1051A000012858D1DA4890F8490000BBD74800F0F0
:1051B00060FAD74948644A6C096C501AFBF71AFA2E
:1051C00041EC1A0B9FEDD40B53EC102BFBF731F98C
:1051D00041EC190B9FEDD20B53EC102BFBF79BF915
:1051E00041EC180BFBF762FAC949C8642DE0C848C6
:1051F00090F84900012828D1C44834300168C448D7
:1052000041640146496C4FF6FF720A440146096C3D
:10521000501AFBF7EFF941EC1A0B9FEDBF0B53EC63
:10522000102BFBF706F941EC190B9FEDBD0B53EC6E
:10523000102BFBF770F941EC180BFBF737FAB44968
:10524000C8640021B24880F849100221AF4800E04C
:1052500011E000F0FFF9AE4890F84800401CC1B2E0
:10526000AB4880F8481090F84800022803D100218C
:10527000A74880F848100421A44800F006FA012845
:105280007ED10121A24880F8371090F83400E0B9AF
:105290004021A048FEF789F9012809D19B48383000
:1052A00001689B48C1620421984800F0D3F96BE083
:1052B0000421964800F0CEF9954890F83400401E3D
:1052C000C1B2934880F834105EE0914890F8340001
:1052D000012859D18E4890F8350008BB8B483830EA
:1052E00001688B48016301460A6BC96A501AFBF7D3
:1052F00081F941EC1A0B9FED880B53EC102BFBF757
:1053000098F841EC190B9FED860B53EC102BFBF733
:1053100002F941EC180BFBF7C9F97D4988632DE0D0
:105320007B4890F83500012828D17848383001684A
:10533000774801630146096B4FF6FF720A44014644
:10534000C96A501AFBF756F941EC1A0B9FED720B24
:1053500053EC102BFBF76DF841EC190B9FED700B24
:1053600053EC102BFBF7D7F841EC180BFBF79EF929
:10537000674988630021664880F83510042100E001
:1053800012E0624800F066F9614890F83400401C71
:10539000C1B25F4880F8341090F83400022803D17D
:1053A00000215B4880F834100821584800F06DF95E
:1053B00001287DD10121564880F8231090F8200063
:1053C000E0B980215348FEF7F0F8012809D14F4891
:1053D0003C3001684E48816108214C4800F03AF9A0
:1053E0006BE00821494800F035F9494890F8200061
:1053F000401EC1B2464880F820105EE0444890F854
:105400002000012859D1424890F8210008BB3F48AC
:105410003C3001683E48C1610146CA698969501A39
:10542000FBF7E8F841EC1A0B9FED3B0B53EC102B0C
:10543000FAF7FFFF41EC190B9FED390B53EC102BE2
:10544000FBF769F841EC180BFBF730F9304948627B
:105450002DE02F4890F82100012828D12B483C301E
:1054600001682B48C1610146C9694FF6FF720A44C1
:1054700001468969501AFBF7BDF841EC1A0B9FED04
:10548000260B53EC102BFAF7D4FF41EC190B9FEDD0
:10549000240B53EC102BFBF73EF841EC180BFBF7F9
:1054A00005F91B4948620021194880F8211000E0E5
:1054B00013E00821154800F0CDF8154890F82000B9
:1054C000401CC1B2124880F8201090F82000022839
:1054D00003D100210E4880F8201010210B4800F065
:1054E000D4F801287ED10A49C8730846007B40BB26
:1054F00004210848FEF759F8012818D10348403024
:10550000006803494860102100480DE00004014094
:10551000C40E002000200240C3F5285C8FC2D53F96
:10552000000000000000004000F094F862E010214C
:10553000374800F08FF83748007B401E3549087324
:1055400058E03448007B012854D13248407B08BBE6
:105550002F48403000682F49886089682D4A52687A
:10556000881AFBF747F841EC1A0B1FED150B53ECAB
:10557000102BFAF75EFF41EC190B1FED170B53ECE4
:10558000102BFAF7C8FF41EC180BFBF78FF82149F5
:1055900008612BE01F48407B012827D11C48403080
:1055A00000681C49886089684FF6FF721144194AE7
:1055B0005268881AFBF71EF841EC1A0B1FED2A0BF4
:1055C00053EC102BFAF735FF41EC190B1FED2C0BA8
:1055D00053EC102BFAF79FFF41EC180BFBF766F822
:1055E0000C4900E011E008610020487310210848D0
:1055F00000F030F80748007B401C06490873084655
:10560000007B022801D100200873BDEC068B10BD81
:1056100000040140C40E002021B1028842F0800243
:10562000028004E002884FF67F731A4002807047C0
:1056300030B5002301248C40A3B2048C9C43048425
:10564000048C02FA01F5ADB22C43048430BDCA4388
:1056500002827047CA430282704721B1028842F039
:105660000102028004E002884FF6FE731A400280B5
:1056700070470146486B70470146886B704701468A
:10568000C86B70470146086C704702460020138AB9
:105690000B400BB1012000E00020704730B50246FE
:1056A000002000230024158A05EA0103958905EAF4
:1056B000010413B10CB1012000E0002030BD70B531
:1056C00005460C46208850B92389A288618828465F
:1056D000FFF712FBE188284600F044F925E0208816
:1056E00004280AD12389A28861882846FFF721FB74
:1056F000E188284600F03FF917E0208808280AD101
:105700002389A28861882846FFF73BFBE188284669
:1057100000F03EF909E02389A28861882846FFF756
:1057200054FBE188284600F03CF970BD1AB183892A
:105730000B43838102E083898B43838170470000A0
:1057400070B5002400220023058C4FF6FE7635400C
:105750000584028C8388048B4FF68F752C40B51E10
:105760002C400D882C43751E2A408D892A434D8874
:105770002A43104DA84202D00F4DA84213D14FF634
:10578000F7752A40CD892A434FF6FB752A408D884C
:105790002A434FF6FF652B404FF6FF552B400D8AED
:1057A0002B434D8A2B43838004838D684563028499
:1057B00070BD000000000140000401400A460021C5
:1057C000018B4FF6F77319401143018370470000B6
:1057D00070B5002400220023058C4FF6EF7635408B
:1057E0000584028C8388048B48F6FF752C404FF6A5
:1057F000FF452C400D884FF6FF7606EA05252C4321
:105800004FF6DF752A408D8906EA05152A434D8833
:1058100006EA05152A43154DA84202D0144DA842A8
:105820001DD14FF67F752A40CD894FF6FF7606EAE7
:1058300005152A434FF6BF752A408D8806EA0515DF
:105840002A434FF6FF352B404FF2FF752B400D8A50
:1058500006EA85052B434D8A06EA85052B4383809E
:1058600004838D688563028470BD000000000140E0
:10587000000401400A460021018B4FF2FF731940DA
:105880004FF6FF7303EA02231943018370470000B8
:1058900070B5002400220023058C4FF6FF663540CA
:1058A0000584028C8388848B4FF68F752C404FF6CD
:1058B000FC752C400D882C434FF6FF552A408D89EE
:1058C0004FF6FF7606EA05252A434D8806EA0525A8
:1058D0002A43154DA84202D0144DA8421DD14FF2C3
:1058E000FF752A40CD894FF6FF7606EA05252A4343
:1058F0004FF6FF352A408D8806EA05252A434EF6E5
:10590000FF752B404DF6FF752B400D8A06EA0515F5
:105910002B434D8A06EA05152B43838084838D68CB
:10592000C563028470BD0000000001400004014016
:105930000A460021818B4FF6F7731940114381838A
:1059400070470A46002101894FF68F7319401143B1
:10595000018170474163704781637047C16370473D
:1059600041627047028B4FF6F3731A400283028B39
:105970000A4302837047028B4FF2FF331A400283BF
:10598000028B4FF6FF7303EA01231A430283704729
:10599000828B4FF6F3731A408283828B0A43828391
:1059A0007047828B4FF2FF331A408283828B4FF60F
:1059B000FF7303EA01231A4382837047002202889F
:1059C000184B98420ED0184B98420BD0B0F1804F34
:1059D00008D0164B984205D0154B984202D0154B73
:1059E000984204D14FF68F731A404B881A43124BDA
:1059F000984207D0114B984204D04FF6FF431A400B
:105A00000B891A4302804B68C3620B880385054BE0
:105A1000984202D0044B984201D18B7A038601232D
:105A200083827047000001400004014000040040F0
:105A300000080040000C004000100040001400402E
:105A400086B000BF00235A1E69461548006805F05D
:105A5000FFFC9DF80000012804D101A91148FCF7C2
:105A6000DAFBEFE700BF1048006860B10E48183855
:105A7000006840F002000C491839086008460068C8
:105A800000F0FD00086008481038006800F0E050A1
:105A90000028E8D001A904481838FCF7BCFBD1E77E
:105AA000F4020020006400401868004008B500209F
:105AB000009000BF06F042F800900D4800780128E1
:105AC00001D103F095FA0B48007860B19FED0A0B05
:105AD00053EC102B0A4890ED000B51EC100BFAF729
